:020000020000FC
:0200000024C01A
:10004800B2C008E00EBF0FEF0DBF7894446179206D
:1000580054696D65200D0A004E69676874205469FB
:100068006D65200D0A00259A2D98239A2B98229ABF
:100078002A98249A2C98569A5E9A17EC10937A002C
:1000880010E610937C00409A6FEF67BD63E864BD8B
:1000980061E065BD519A59985098589A0F931F93EB
:1000A80007E610E00093C4001093C50008E9009328
:1000B800C1001F910F9110917A00106410937A007B
:1000C80010917A0016FDFCCF1091780020917900EC
:1000D8002F938F939F932AE08EE39CE90197F1F782
:1000E8002A95D1F700009F918F912F910F9300913E
:1000F800C00005FFFCCF022F0093C6000F910F939D
:100108000091C00005FFFCCF0AE30093C6000F91E1
:100118000F930091C00005FFFCCF00E20093C600DA
:100128000F91243608F501C0C6CFE4E5F0E00F933F
:100138001F930591003039F01091C00015FFFCCFD6
:100148000093C600F6CF1F910F912F938F939F9323
:1001580022E38EE39CE90197F1F72A95D1F7000095
:100168009F918F912F91A7CFE0E6F0E00F931F9317
:100178000591003039F01091C00015FFFCCF0093B5
:10018800C600F6CF1F910F912F938F939F9322E371
:100198008EE39CE90197F1F72A95D1F700009F912A
:1001A8008F912F9188CF90E09091C00097FF03C066
:1001B8009091C60001C090E0913081F09230C9F072
:1001C8009330E1F19430F1F19530B1F19630E1F1ED
:1001D8009730B1F19830D1F13BC045C00F930091F1
:1001E800C00005FFFCCF01E30093C6000F912C9AD5
:1001F8003AC00F930091C00005FFFCCF02E30093C3
:10020800C6000F912C982FC00F930091C00005FFD6
:10021800FCCF03E30093C6000F916FEF67BD23C0C7
:100228000F930091C00005FFFCCF04E30093C600C4
:100238000F9166E967BD17C02B9A15C02D9A13C098
:100248002A9A11C02D980FC02B980DC02A980BC060
:100258000F930091C00005FFFCCF03E30093C60095
:080268000F9197BD00C018952D
:00000001FF
